:020000040800F2
:1000000030D40020150300088B1D0008F3180008E9
:10001000891D000831080008652100080000000063
:100020000000000000000000000000005D02000869
:10003000BD08000800000000B1020008311E0008E1
:100040002F0300082F0300082F0300082F030008C8
:100050002F0300082F0300082F0300082F030008B8
:100060002F0300082F0300082F0300082F030008A8
:100070002F0300082F0300082F0300082F03000898
:100080002F0300082F0300082F0300082F03000888
:100090002F0300082F0300082F0300082F03000878
:1000A0002F0300082F0300082F0300082F03000868
:1000B0002F0300082F0300082F0300082F03000858
:1000C0002F0300082F0300082F0300082F03000848
:1000D0002F030008212100082F0300082F03000828
:1000E0002F0300082F0300082F0300082F03000828
:1000F0002F0300082F0300082F0300082F03000818
:100100002F0300082F0300082F0300082F03000807
:100110002F0300082F0300082F0300082F030008F7
:100120002F0300082F0300082F0300082F030008E7
:100130002F0300082F0300082F0300082F030008D7
:100140002F0300082F0300082F0300082F030008C7
:100150002F0300082F0300082F0300082F030008B7
:100160002F0300082F0300082F0300082F030008A7
:100170002F0300082F0300082F03000800000000D1
:100180002F0300082F0300082F0300082F03000887
:100190002F0300082F0300082F0300082F03000877
:1001A0002F0300082F0300082F03000800F002F8B7
:1001B00000F044F80AA090E8000C82448344AAF1BD
:1001C0000107DA4501D100F039F8AFF2090EBAE8BB
:1001D0000F0013F0010F18BFFB1A43F0010318477B
:1001E000208A0000408A0000103A24BF78C878C1F5
:1001F000FAD8520724BF30C830C144BF04680C602D
:10020000704700000023002400250026103A28BF74
:1002100078C1FBD8520728BF30C148BF0B60704778
:10022000642900F00381732900F0108200207047D8
:100230001FB504F033F91FBD10B510BD00F09BFAD7
:100240001146FFF7F5FF01F0EBFF00F0B9FA03B438
:10025000FFF7F2FF03BC01F086FF00002A4B19688C
:100260000868B0E8F04F80F30988BFF36F8F4FF054
:10027000000080F311887047000000000648006805
:10028000006880F3088862B661B6BFF34F8FBFF392
:100290006F8F00DF00BF00BF08ED00E0DFF80C004B
:1002A000016841F470010160704700BF88ED00E013
:1002B000EFF30980BFF36F8F134B1A681EF0100F16
:1002C00008BF20ED108A20E9F04F106008B44FF00D
:1002D000500080F31188BFF34F8FBFF36F8F03F08F
:1002E0006BF94FF0000080F3118808BC19680868AA
:1002F000B0E8F04F1EF0100F08BFB0EC108A80F38A
:100300000988BFF36F8F70474C000020EFF3058022
:10031000704700000948804709480047FEE7FEE7AC
:10032000FEE7FEE7FEE7FEE7FEE7FEE7FEE7FEE7A5
:1003300004480549054A064B70470000491E00085D
:10034000AD01000830CE002030D4002030D0002095
:1003500030D00020704700000FB4044910B503AA44
:10036000029800F077F910BC5DF814FB3C00002007
:100370002DE9F0410E460446002020622046E16847
:10038000884730B3252805D0D4E901219047206A59
:10039000401CF2E7E168204600278847050018D096
:1003A000A5F14100192802D820354FF400673246E4
:1003B000294620462760FFF733FF40B1012804D0CB
:1003C000F61D26F007060836D8E7361DD6E728467C
:1003D000DAE7206ABDE8F08170B50C460546012ACF
:1003E00005D02878800600D5EA69002302E00123C1
:1003F00005E05B1C934202D2E05C0028F9D1A869B9
:10040000E618C01AA861286A184428622846AFF383
:10041000008004E0D5E9012114F8010B9047B442B3
:10042000F8D32846AFF3008070BD00002DE9F041FD
:100430000646002410687529314616A510D0AFF382
:100440000080002802DA404213A507E031688A07DD
:1004500001D512A502E0490704D511A5012401E048
:10046000AFF3008000210A2206F1240709E0B0FB67
:10047000F2FCB0FBF2F302FB1C003030785418465B
:10048000491C0028F3D123462A463046BDE8F041F6
:1004900000F059B8000000002D0000002B00000003
:1004A00020000000032A40F2308010F0030C00F01E
:1004B000158011F8013BBCF1020F624498BF11F89E
:1004C00001CB00F8013B38BF11F8013BA2F1040257
:1004D00098BF00F801CB38BF00F8013B11F00303CF
:1004E00000F0CA80083AC0F0088051F8043B083A8E
:1004F00051F804CBA0E80810F5E7121D5CBF51F8D5
:10050000043B40F8043BAFF30080D20724BF11F84E
:10051000013B11F801CB48BF11F8012B24BF00F8B3
:10052000013B00F801CB48BF00F8012B704702F0F7
:10053000FF0343EA032242EA024200F0D1B87047C7
:100540007047704770472DE9F0470D46994692462F
:10055000044600F124080168880604D5E06921F00A
:100560001001216000E00120A84201DD471B00E0EE
:100570000027A1697A1902EB0900081AA061207806
:10058000C00602D42046AFF30080002608E0D4E97C
:1005900001211AF806009047206A401C761C206250
:1005A0004E45F4DB2078C0060AD52046AFF3008024
:1005B00006E0D4E9012130209047206A401C2062E7
:1005C000381EA7F10107F4DC07E0D4E9012118F88F
:1005D00005009047206A401C2062281EA5F10105F5
:1005E000F3DC2046AFF300802078000602D502201D
:1005F000BDE8F0870120FBE701694A1C0261087829
:10060000704700B58FB0CDE9013100210591054952
:100610007944CDE9031011466846FFF7A9FE0FB0F3
:1006200000BD0000E5FFFFFF10B5436913B1AFF354
:10063000008001E0FFF7D0FE012010BD127800F12C
:1006400024010A7000224A700122EDE711684FF080
:10065000FF32E9E7074B70B50D467B44FFF7D1FF4A
:100660000446284600F05CF810B14FF0FF3070BD32
:10067000204670BDAF1B000010B5203AC0F00B80C3
:10068000B1E81850203AA0E81850B1E81850A0E896
:100690001850BFF4F5AF5FEA027C24BFB1E81850F0
:1006A000A0E8185044BF18C918C0BDE810405FEA60
:1006B000827C24BF51F8043B40F8043B08BF7047DC
:1006C000D20728BF31F8023B48BF11F8012B28BFE1
:1006D00020F8023B48BF00F8012B70474FF00002A2
:1006E0000429C0F0128010F0030C00F01F80CCF140
:1006F000040CBCF1020F18BF00F8012BA8BF20F8B2
:10070000022BA1EB0C0100F011B85FEAC17C24BF01
:1007100000F8012B00F8012B48BF00F8012B7047AF
:10072000007B00F0800070474FF0000200B51346D8
:1007300094469646203922BFA0E80C50A0E80C5001
:10074000B1F12001BFF4F7AF090728BFA0E80C50B2
:1007500048BF0CC05DF804EB890028BF40F8042BAB
:1007600008BF704748BF20F8022B11F0804F18BF18
:1007700000F8012B7047754600F02CF8AE460500D6
:100780006946534620F00700854618B020B5FFF7AC
:10079000CFFDBDE820404FF000064FF000074FF0BE
:1007A00000084FF0000B21F00701AC46ACE8C0098F
:1007B000ACE8C009ACE8C009ACE8C0098D46704798
:1007C00010B50446AFF300802046BDE81040FFF7A7
:1007D0003EBD000000487047CCCD00202DED048BBD
:1007E0004FF480669FED0E9B0F4D104F0024B0EE2E
:1007F000498AF0EE698A052000F062F803F03DFDB9
:1008000053EC182B03F04CFD03F006FD45F82400D3
:10081000641CB442EFDB786902F05EFEE6E700009C
:100820006666666666664A3FC000002000000020DB
:10083000FEE700001CB50B4909480860084600F0B7
:10084000A4F900200090022001900022694605488A
:1008500000F07AF90021034800F0DFF91CBD000028
:10086000007400400C12002008B500231A461946F7
:10087000104800F0C5F9104C102640F6B835009627
:10088000642105230846226801F004FA00231A4671
:100890001946084800F0B4F9206802F023FC002251
:1008A0002B461146034800F0ABF9206802F01AFC11
:1008B000E5E700000C120020000000207047000057
:1008C0001FB569460090012001900720029000208A
:1008D0000390084800F010F8064800F0F1F80A21EB
:1008E000044800F0B6F8034800F0B0F804B080B255
:1008F00010BD0000C811002078B50024009490F8C5
:100900003C20012A19D0012280F83C200A680725E2
:100910000368092A13D9DE680A3A02EB42029540BD
:10092000AE43DE600A788B680A3A02EB42029340DB
:100930000268D5682B43D36010E0022078BD1E69A1
:1009400002EB42029540AE431E610A788B6802EBCF
:1009500042029340026815692B4313614A681F25C0
:10096000072A13D203685E6B521E02EB8202954087
:10097000AE435E630A8893B20A79521E02EB82028A
:1009800093400268556B2B43536327E003680D2A9D
:1009900012D21E6BD21F02EB82029540AE431E6341
:1009A0000A8893B20A79D21F02EB8202934002684E
:1009B000156B2B43136311E0DE6A0D3A02EB8202E2
:1009C0009540AE43DE620A8893B20A790D3A02EB93
:1009D000820293400268D56A2B43D362174B0268A8
:1009E0009A4208D10A68122A05D1D3F8042342F4A6
:1009F0008002C3F8042302689A421BD1104D0A6892
:100A0000AA4201D0112A15D1D3F8042342F40002DE
:100A1000C3F804230968A9420CD10A490A4A0968A3
:100A2000B1FBF2F101EB8101490000E0491E0091A8
:100A30000029FBD180F83C40002078BD0020014017
:100A4000120000101800002040420F000068C06C27
:100A500070472DE9F041044600680D4681684FF06B
:100A6000000749050AD58068C00507D5042084F829
:100A70003D0084F83C700120BDE8F08100F0FCF9F5
:100A800006460DE0681C0BD025B100F0F5F9801B7F
:100A9000A84205D9032084F83D0084F83C70EBE7B8
:100AA000206800688007EDD594F83D00252804D023
:100AB000152084F83D000020DEE73520F9E700002E
:100AC00008B50022009290F83C1001290ED00121B7
:100AD00080F83C1090F83D10222909D0122180F8AE
:100AE0003D1001688B68DB0704D013E0022008BDCD
:100AF0003221F4E78B6843F001038B600F49104B00
:100B00000968B1FBF3F101EB410100E0491E0091DE
:100B10000029FBD10B4980F83C20D1F80423006860
:100B2000D20601D0884207D1816811F0405F03D11D
:100B3000816841F080418160002008BD18000020DC
:100B400040420F000020014070B54379012B1AD0BC
:100B5000012646710223037103681D6840F6FE7486
:100B60009440A543D1E900410C4394402C431C60C0
:100B700001680B68C0249440A3430B6006710021F8
:100B80004171084670BD022070BD70B5040003D0ED
:100B90002079002510B105E0012070BD6571204667
:100BA00000F008F80220207125610120207100204A
:100BB00070BD0000104800B5026887B0002142F007
:100BC00000520260006800F0005005900A4810389A
:100BD000026842F001020260006800F00100059026
:100BE000102000900320CDE901016946034800F080
:100BF0004BF807B000BD0000403802400000024042
:100C000018B5046800940068104421B114300090B5
:100C10000360002018BD0830F9E730B54279012A99
:100C200016D001234371022202710268146803FA8C
:100C300001F52C431460002901680A680AD00C6889
:100C400002F4802204F46014B2F5802F0FD015E076
:100C5000022030BD0C6802F0040204F03804042ABB
:100C60000CD1382C0AD14A6842F0010205E0B4F5F3
:100C7000601F03D14A6842F002024A6003710021FA
:100C80004171084630BD00002DE9F84FDFF8A09112
:100C9000002209F1040A0AF1040B4FF00F080BF1CE
:100CA000040E01260B6896403340B34271D14C6864
:100CB000022C01D0122C11D1D40800EB84073D6A1C
:100CC0005407E40E08FA04FC25EA0C05D1F810C01C
:100CD0000CFA04FC4CEA050CC7F820C00768540065
:100CE000032591F804C0A5400CF0030CAF430CFAA7
:100CF00004FC4CEA070CC0F800C04F68012F05D077
:100D0000022F03D0112F01D0122F11D18768D1F8F3
:100D10000CC0AF430CFA04FC4CEA070CC0F808C046
:100D20004768B7430E79C6F3001696403E434660C7
:100D3000C668AE438D68A5403543C5604C68E40085
:100D40006FD53C4C256845F480452560246822F029
:100D5000030504F480440094374C2E19D6F8087823
:100D60009407250F08FA05F4A743344CA04201D19B
:100D700000242EE0324CA04201D1012429E0314C64
:100D8000A04201D1022424E02F4CA04202D103242E
:100D90001FE046E02D4CA04201D1042419E02C4C68
:100DA000A04201D1052414E02A4CA04201D106241E
:100DB0000FE0294CA04201D107240AE0274CA042B1
:100DC00001D1082405E0264CA04201D1092400E00D
:100DD0000A24AC403C43C6F80848D9F800404D46C8
:100DE0004E689C43F60300D51C432C60DAF80040A3
:100DF00055464E689C43B60300D51C432C60DBF877
:100E000000405D464E689C43F60200D51C432C60B2
:100E1000DEF8004075464E689C43B60200D51C4380
:100E20002C60521C102AFFF43CAFBDE8F88F000084
:100E3000003C0140443802400030014000000240C4
:100E40000004024000080240000C02400010024072
:100E50000014024000180240001C02400020024022
:100E6000002402400069084000D0012070470AB108
:100E7000816170470904FBE7014800687047000082
:100E80002C00002002480168491C016070470000E6
:100E90002C0000200B4810B5016841F4007101607E
:100EA000016841F480610160016841F48071016072
:100EB000032000F049F80F2000F006F800F015F8C4
:100EC000002010BD003C024010B5044600F096F929
:100ED0004FF47A71B0FBF1F000F0AAFB002221463A
:100EE000501E00F011F8002010BD08B50020009041
:100EF00008BD00F01F02012191404009800000F16F
:100F0000E020C0F800117047F0B40E4B1B68C3F32B
:100F10000223C3F10704042C00D904241D1D072D4E
:100F200001D2002300E0DB1E012606FA04F56D1E47
:100F30000D409D409E40761E164045EA0601F0BCDD
:100F400000F024BF0CED00E0064A00F00701106835
:100F50004FF6FF03184040EA0120034908431060A0
:100F6000704700000CED00E00000FA052DE9F843A1
:100F70001D48016841F0805101600068012700F0C0
:100F800080500090380490FAA0F0DFF86080B0FA4A
:100F900080F048F82070FFF76FFF04464FF47A7531
:100FA000134E04E0FFF768FF001BA84213D87068D7
:100FB000C003F7D54FF4003090FAA0F0B0FA80F0FB
:100FC00048F82070FFF758FF044607E0FFF754FF8A
:100FD000001BA84202D90320BDE8F8837068800393
:100FE000F4D50020F8E700004038024000000E422F
:100FF000007000402DE9F05FDFF8F8A104460F46CD
:10100000DAF80000DFF8F08100F00F02C8B27A4988
:10101000814641F2883608F10808BA4261D2024698
:101020008AF80020DAF8000000F00F00B8427DD105
:101030002078800707D5D8F80020A36822F0F002B6
:101040001A43C8F800202078C0072DD06068012816
:101050001AD002281BD0032819D009688907002953
:1010600064DAD8F80010474621F003010143C8F8BC
:101070000010FFF701FF0546606801280FD0022825
:1010800018D003281CD027E009688903E7E709681E
:101090008901E4E7FFF7F0FE401BB04258D83868FA
:1010A000C0F381000128F5D188E0FFF7E5FE401B81
:1010B000B0424DD83868C0F381000228F5D17DE0F8
:1010C0003868FFF7D9FE401BB042F9D940E0FFF77E
:1010D000D3FE401BB0423BD8386810F00C0FF6D15D
:1010E0006CE02078800707D5D8F80020A36822F0AC
:1010F000F0021A43C8F800202078C0074CD060687E
:10110000012828D0022829D0032827D00968890778
:10111000002949DAD8F8002022F003020243C8F877
:101120000020FFF7A9FE0546606800E03CE00128CA
:101130001DD0022829D0032838D0B346464630684F
:1011400010F00C0F28D0FFF797FE411B5945F6D938
:101150000320BDE8F09F09688903D9E70968890180
:10116000D6E7FFF789FE411B594502D9F0E7B346A0
:1011700046463068C0F381000128F2D10CE0FFF749
:101180007BFE411B594502D9E2E7B346464630682B
:10119000C0F381000228F2D18AF80090DAF800004A
:1011A00000F00F00B84209D00120D2E74446206881
:1011B000FFF762FE401BB042F9D9C9E7207840072B
:1011C00007D5D8F80010E26821F4E0511143C8F8BF
:1011D00000102078000708D5D8F80010226921F403
:1011E000604141EAC201C8F800100F20FFF76CFE11
:1011F0000020AEE7003C02400038024010B500F08D
:1012000043F808490968F02292FAA2F201F0F001CD
:10121000B2FA82F2D140044A515CC84003490860E6
:1012200010BD000008380240B0440008180000203B
:1012300010B5FFF7E3FF074909684FF4E05292FA4F
:10124000A2F201F4E051B2FA82F2D140024A515CBA
:10125000C84010BD08380240B044000810B5FFF780
:10126000CDFF074909684FF4604292FAA2F201F4F7
:101270006041B2FA82F2D140024A515CC84010BDCE
:1012800008380240B044000830B51948006810F032
:101290000C01184812D0184C04290ED008290DD181
:1012A000134A121F1168136801F03F015D0247F6EF
:1012B000C07304D5B4FBF1F003E0204630BDB0FBB1
:1012C000F1F01168194093FAA3F3B3FA83F3D9400C
:1012D000484311684FF4403292FAA2F201F44031CF
:1012E000B2FA82F2D140491C4900B0FBF1F030BDA6
:1012F000083802400024F40040787D012DE9F84FC1
:1013000004460078DFF8FCA2BF4DC0074FF000068E
:1013100048D0DAF800105046C1F38101012908D005
:101320000068C0F3810002280AD1281D006840022D
:1013300006D52868800335D56068002873D031E071
:10134000DFF8C49209F1020989F80060FFF794FD03
:10135000074641F2883804E0FFF78EFDC11B414586
:101360007AD828688003F7D4207989F8000060686B
:1013700060B1FFF781FD074604E0FFF77DFDC11B6B
:101380004145EDD828688003F7D50BE0FFF774FDE1
:10139000074604E0FFF770FDC11B4145E0D828680F
:1013A0008003F7D42078DFF86492800744D5DAF818
:1013B0000010504611F00C0F4FF0F80809D00068EB
:1013C000C0F3810002280BD18E48001F0068400244
:1013D00006D42868800714D5E068012823D110E0DE
:1013E000E068D0B10120C9F80000FFF745FD0746CD
:1013F00004E0FFF741FDC01B6428B1D828688007CE
:10140000F7D5286898FAA8F22169B2FA82F220F09A
:10141000F8009140084328600EE0C9F80060FFF72B
:101420002BFD074605E0EAE0FFF726FDC01B642818
:1014300012D828688007F7D42078000725D5DFF870
:10144000C4817348616908F16C0881B101210160B0
:10145000FFF712FD074605E07EE0FFF70DFDC01B1C
:10146000642879D8D8F800008007F6D50DE006602A
:10147000FFF702FD074604E0FFF7FEFCC01B6428EF
:101480006AD8D8F800008007F6D42078400753D5F2
:101490005C483830016841F0805101600068DFF835
:1014A000748100F080500090D8F8001041F48071F1
:1014B000C8F80010FFF7E0FC074604E0FFF7DCFC8B
:1014C000C01B642848D8D8F80000C005F6D5DFF85E
:1014D00034B10BF1680B8BF80060FFF7CDFC0746C9
:1014E00041F2883804E0FFF7C7FCC11B41457ED8B4
:1014F000DBF800008007F6D4207A8BF80000A068A3
:1015000068B1FFF7B9FC074604E0FFF7B5FCC11B63
:1015100041456CD8DBF800008007F6D50CE0FFF7FA
:10152000ABFC074604E0FFF7A7FCC11B41455ED8B2
:10153000DBF800008007F6D4A069E8B3DAF8001001
:10154000C1F3810102295AD0022806D0C9F860608F
:10155000FFF792FC04464DE049E04F46C9F8606051
:10156000FFF78AFC064604E0FFF786FC801B642830
:101570003DD828688001F7D4D4E90701084347F62D
:10158000C07191FAA1F1626AB1FA81F18A40A16A4F
:101590004FF0FF3303EB51014FF4403393FAA3F3C1
:1015A000B3FA83F399400A4310434FF0706292FA02
:1015B000A2F2B2FA82F200E01FE0E16A9140084331
:1015C0001049091F086001203866FFF755FC0446E2
:1015D00004E0FFF751FC001B642808D8286880014C
:1015E000F7D50AE0FFF748FC001B642802D9032066
:1015F000BDE8F88F28688001F4D40020F8E70120C6
:10160000F6E7000008380240003802400000474278
:10161000800E4742007000404FF0E0210428086926
:1016200003D020F004000861704740F00400FAE79E
:1016300010B5401EB0F1807F01D3012010BD4FF0E6
:10164000E02460610F21601700F0A0FB0020A06182
:1016500007202061002010BD704790F839007047C6
:1016600038B5016804460868CA68C0F3000002F48F
:10167000807238B132B1086848680090E06B40F081
:101680000100E06308684A69C0F3400002F001020B
:1016900038B132B1086848680090E06B40F004004F
:1016A000E06308684A69C0F3800002F0010238B1C3
:1016B00032B1086848680090E06B40F00200E063D7
:1016C00008684A69C0F3C00002F0010238B132B1C3
:1016D000086848680090E06B40F00800E063086824
:1016E000C968C0F3401001F0200118B111B12046C3
:1016F00000F0D4FB20680168C068C1F3C01100F09D
:10170000800019B110B1204600F0D6FC21680868AD
:10171000CA68C0F3801002F04002012568B162B1CE
:10172000CA68204622F04002CA6094F83910322973
:101730000CD080F8395000F0DBF8E06B002804D0C2
:1017400084F839502046FFF787FF38BD222180F802
:101750003910F0E770B5040004D094F83900002582
:1017600010B106E0012070BD84F83850204600F02A
:1017700021F8022084F839002068C16821F4005162
:10178000C160204600F0DEFB2068016921F4904131
:1017900001612068416921F02A0141612068C16826
:1017A00041F40051C160E563012084F83900002054
:1017B00070BD000010B500681A4986B088422FD16C
:1017C0001948016841F001010160006800F0010062
:1017D000059015481430016841F01001016000685F
:1017E000012100F0100005904FF4007000900220DD
:1017F000CDE90101039007200C4C04906946204676
:10180000FFF742FA2115009169462046FFF73CFA9E
:101810002520FFF76EFB032211462520FFF774FBFE
:1018200006B010BD001001403038024000000240F8
:1018300090F83930012B01D0122B2BD131B32AB3C0
:1018400090F83830012B25D0012380F838308162A0
:101850008285C2850022C26390F83910122917D000
:10186000222180F839100168CB6843F48073CB6083
:1018700001684B6943F001034B6180F83820006830
:10188000C16841F02001C16000207047012070470D
:101890003221E6E70220704730B5006811498842DE
:1018A0000CD1114A5088010408D411464404097827
:1018B0004FF0000306D50A2901D0538030BD40F413
:1018C00000400DE00D2909D0C0F30D04074D401C68
:1018D00080B229555080C728EFD830BD40F48040F1
:1018E000508030BD0010014038000020C0100020A2
:1018F0007047FEE770B51B4886B00025016841F0CF
:1019000001010160016801F001010591016841F0E8
:1019100004010160016801F004010591016841F0D2
:10192000800101600068032400F08000059002201F
:101930000126CDE90204CDE9006569460A48FFF7B2
:10194000A3F9700303948DE8610069460748FFF727
:101950009BF90C20009069460548FFF795F906B001
:1019600070BD000030380240000002400008024014
:10197000001C02402DE9F0470126304C7703DFF8C8
:10198000C080DFF8C090304D01281DD02078A0B174
:1019900008212846FFF766FAC0B104212846FFF760
:1019A00061FA98B139464046FFF75CFA70B10121FF
:1019B0004846FFF757FA012808D008212846FFF7C4
:1019C00051FA012826D037E02670E1E70A2000F01E
:1019D000E7FB0020207008212846FFF743FA80B17A
:1019E00004212846FFF73EFA70B139464046FFF71A
:1019F00039FA58B101214846FFF734FA012807D0D7
:101A00001AE00120BDE8F0870220FBE70320F9E798
:101A10000420F7E704212846FFF724FA01280BD118
:101A200039464046FFF71EFA012805D101214846F4
:101A3000FFF718FA00B926700020E3E74000002005
:101A40000008024000000240001C02401C4D1D4CDA
:101A50000020FFF78FFF012820D0022817D003288D
:101A600012D00428F4D1D4F8800238B10020C4F890
:101A70008002D4F8800218B1002002E00120F6E7CD
:101A80000120C4F88402E3E7D4F88402F3E70EA04F
:101A9000FEF762FC686901F061FCD9E7D4F88402C2
:101AA00048B10020C4F88402D4F8800228B1002094
:101AB000C4F88002CCE70120F4E70120F8E7000039
:101AC0000000002000804042B0B4BCFC31D2D1B054
:101AD000B4CFC20A000000002DE9F041304D90461D
:101AE0000C460246060AA9882846270A4089A1F51D
:101AF000AA43103B0FD0A1F5C853633B24D000F09C
:101B000011F9304600F002F9D0B200F0FFF8A889D0
:101B100000F008F936E000F005F9304600F0F6F87C
:101B20006889401C80B200F0FDF8D0B200F0EEF8F9
:101B3000A88900F0F7F8384600F0E8F8A889401CBA
:101B400080B200F0EFF820E0A97919B92988891A44
:101B5000491E8AB200F0E6F8160A304600F0D6F8C0
:101B6000D0B200F0D3F8304600F0D0F8D0B200F098
:101B7000CDF8A88900F0D6F8384600F0C7F8E0B2F2
:101B800000F0C4F8384600F0C1F8E0B200F0BEF84A
:101B9000044928890880891CA1F80080BDE8F081EB
:101BA00070120020FEFF07600346012000E058434A
:101BB000491EC9B2FBD270472DE9F84F82461F4635
:101BC0000E468B46580700D0012000EBD70079085D
:101BD00010FB01F0203AC0B202F0FF09002500908E
:101BE00047E00C2F10D0102F12D0182F14D0202F18
:101BF00042D1224901EBC9104FF00008445D200694
:101C000010D51F48026811E009EB49001D4906E0A4
:101C10001D4901EB0910EFE71C4909EBC90001EB75
:101C20008000E9E70A9828B91548426831465046CD
:101C3000FFF752FF6006040E1548761CB6B24088C6
:101C4000B04219D9A6EB0B00B84209D10AF1010044
:101C50001FFA80FA0E485E46018851450CD906E00D
:101C600008F1010000F0FF08B8F1080FC7D36D1CA0
:101C7000EDB200988542B4D3BDE8F88F805C0008CF
:101C800044000020C044000834490008244F0008E4
:101C9000701200202DE9FF4F81B00027DDF838B029
:101CA0001D46924680463C46B9464FEA5B0627E011
:101CB000281B401EC1B20A20FFF776FFBAFBF0F0E6
:101CC0000A21B0FBF1F201FB120027B9691E8C4218
:101CD00001DA48B101273030C2B206FB048080B27D
:101CE0005B46CDF8009006E006FB048080B25B46C0
:101CF0002022CDF800900299FFF75EFF641CE4B249
:101D0000AC42D5D305B0BDE8F08F000001B5BDF8F9
:101D10000000ADF80000BDF800000149088008BDD2
:101D20000000086001B5BDF80000ADF80000BDF886
:101D300000000149088008BDFEFF0760104810B58B
:101D4000016886B041F0020101600068012100F0E5
:101D5000020005900320CDE90210CDE90001094CF5
:101D600069462046FEF790FF012211462046FFF704
:101D70007EF8012202212046FFF779F806B010BD57
:101D80003038024000040240FEE770470907090EA0
:101D9000002806DA00F00F0000F1E02080F8141DA2
:101DA000704700F1E02080F80014704770B51E4CB9
:101DB00092B00025266846F080562660246804F01C
:101DC00080541194194C266846F4404626602468D5
:101DD0000DF1240C04F44044119401240094019466
:101DE000022406948CE80D006605CDE9076168467B
:101DF000FFF784FA00B1FEE7FFF7B8F800B1FEE79D
:101E00000CA90F2081E831004FF4A0500F904FF43F
:101E10008050109005210CA8FFF7ECF8002800D0A6
:101E2000FEE712B070BD0000403802400070004074
:101E300010B501F095FF012801D001F085FCBDE847
:101E40001040FFF71FB800001048016841F470010E
:101E500001600F48016841F0010101600C4A002156
:101E60000832116002680B4B1A400260031D0A4AD7
:101E70001A60026822F48022026005480C3001607A
:101E800002495806803908607047000088ED00E07C
:101E900000380240FFFFF6FE1030002410B590F825
:101EA0003910222903D0322901D0022010BD8168C7
:101EB000B1F5805F11D00169002901681FD0496820
:101EC00001F07F03816A4A1C82620B70C18D491E3A
:101ED0000904090CC18518D02FE00269816A002A23
:101EE0000268526805D0D2B20A80816A491C8162B8
:101EF000ECE7C2F308020A80816A891CF7E74A68A6
:101F0000816A4B1C83620A70E0E70168CA6822F0AC
:101F10002002CA6090F83910322910D00168CA68CE
:101F200022F48072CA6001684A6922F001024A61A3
:101F3000012180F83910FFF7AFFC002010BD1221FD
:101F4000F7E700002DE9F041044600680169E26806
:101F500021F440510A4302612068C16849F20C62D1
:101F600091432369A268E5691A4363692B431A43C5
:101F70000A43C2602068416921F44072A16911439B
:101F80004161E06964263225B0F5004F484A49496D
:101F900020681DD0884201D0904269D1FFF75EF9D8
:101FA00000EBC00101EB00106168B0468900B0FB96
:101FB000F1F1B1FBF8F6FFF751F900EBC00101EBCD
:101FC000001061688900B0FBF1F7FFF747F968E09E
:101FD000884201D0904219D1FFF740F900EBC001CF
:101FE00001EB00106168B0464900B0FBF1F1B1FBB4
:101FF000F8F6FFF733F900EBC00101EB0010616860
:102000004900B0FBF1F7FFF729F918E0FFF710F9E5
:1020100000EBC00101EB00106168B0464900B0FB65
:10202000F1F1B1FBF8F6FFF703F900EBC00101EBAA
:10203000001061684900B0FBF1F7FFF7F9F800EB19
:10204000C00101EB001061684900B0FBF1F1B1FB88
:10205000F8F06FF01801484307EB800005EB001122
:10206000B1FBF8F0216866F31F108860BDE8F081CD
:10207000FFF7DEF800EBC00101EB00106168B0462D
:102080008900B0FBF1F1B1FBF8F6FFF7D1F800EBF6
:10209000C00101EB001061688900B0FBF1F7FFF7A8
:1020A000C7F800EBC00101EB001061688900CCE7C4
:1020B000001401400010014090F83910122903D09B
:1020C000322901D0022070478168B1F5805F016A32
:1020D0000BD04A1C0262026809785160C18C491E0B
:1020E0000904090CC1840ED017E009880268C1F305
:1020F0000801516001690029016A02D0491C01628E
:10210000ECE7891CFBE70168CA6822F08002CA601C
:102110000068C16841F04001C160002070470000C4
:1021200070B500240C4D0D48FFF79AFA02E0641CCC
:10213000AC4204D80948FFF790FA0128F7D10024EF
:1021400002E0641CAC4206D8012205490348FFF7AF
:102150006FFB0028F5D170BDFFFF01008811002042
:1021600038000020FEE7704710B504460420FFF752
:1021700053FA0A484FF47A7114FB01F101224460CA
:1021800002804FF0E020026942F0020202614161E8
:10219000016941F00101016110BD00003000002023
:1021A00070B5044601F0DCFD01280CD0094D2888EB
:1021B000844203D3B4FBF0F000F094FF2888B4FB12
:1021C000F0F100FB11444FF47A706043BDE87040B9
:1021D00000F002B83000002070B54FF0E02500217B
:1021E0006C69094AAB6952685043AA699A42FCD0AB
:1021F00002D2A3EB020302E0A4EB0206334419442B
:1022000013468142F1D370BD3000002003490A68B3
:102210005206FCD5C2B24A6070470000001001406F
:102220001CB5FEF737FE0823022219214FF4B470C3
:10223000FFF7BCFDB420FFF797FFFFF77FFDFFF727
:1022400059FB4FF4E13000F079FDFEF7F3FA07494E
:102250000120CDE900010023802205A1074801F0FB
:1022600053FD01F0EFF800201CBD00000400002029
:1022700073746172745F7461736B0000912C000859
:102280002DE9F041184E0F460446F5683068001DF0
:1022900000F09EFD38B9306890F82C10012088407D
:1022A000316981433161601C07D137B13168BDE8C4
:1022B000F0410E48091D00F0C3BD30682C44AC420B
:1022C0004460316805D2B06BBDE8F041091D00F0F3
:1022D0009FBD706B091D00F09BFDB06A844200D267
:1022E000B462BDE8F08100004C0000209015002091
:1022F0002DE9F041054600F0AFFD2D4EB068401CC1
:10230000B06030682B4F10B1706930B32BE035608E
:10231000B068012827D1002404EB840007EB80007B
:1023200000F068FD641C202CF6D3234800F062FD09
:102330002148143000F05EFD1F48283000F05AFD9F
:102340001D483C3000F056FD1B48503000F052FD57
:10235000194870631430B06305E03068E96AC06AF8
:10236000884200D83560706A0121401C7062686440
:10237000E86A326981401143316100EB800007EB6C
:102380008000291D00F05CFD00F0A2FD70690028AE
:102390000CD03068E96AC06A884207D207494FF01A
:1023A00080500860BFF34F8FBFF36F8FBDE8F0819F
:1023B0004C000020C01200204015002004ED00E079
:1023C00010B500F049FD0E4C2068A0B90D4800F092
:1023D00011FD0C48143000F00DFD0A48E060143087
:1023E000206100221021052001F0C4F9206010B105
:1023F00005A100F043FEBDE8104000F069BD0000FB
:1024000088000020A4150020546D725100000000C7
:1024100070B5124E124D1CE001F0C6F8306820B1C4
:10242000002401F0CBFDA4B901E00124F9E700F09C
:1024300013FDF068C468201D00F0CAFCA868401EA7
:10244000A8606868401E686000F042FD204600F009
:1024500052F868680028DFD170BD00007C150020AC
:102460004C00002030B4026C0B46002A0BD0C1682F
:102470001144C1604468A14201D30168C16030BC0D
:102480001846FEF70FB830BC70472DE9F041856B58
:10249000174604460026026C82B1C7B1E068FEF719
:1024A00001F8E168206C091AE1602268914202D2C9
:1024B0006168081AE060022F16D017E02068A8B9FA
:1024C000606801F0D5FC0646002060600EE0A06860
:1024D000FDF7E8FF216CA0680844A06061688842AD
:1024E00004D32068A06001E005B16D1E6D1CA563DA
:1024F0003046BDE8F08110B50446006B00F01AFDCF
:102500002046BDE8104000F015BD000010484FF413
:102510003841420706D0C01D0D4920F00700411A7E
:10252000C1F538410B4A00230144C2E900030839D0
:10253000103A21F0070111604B600B600B1AC0E9E3
:10254000001393604FF000405360D060704700006C
:10255000CC150020B8000020074E4FF08054074DE6
:10256000FFF756FF30680128FAD92C60BFF34F8F70
:10257000BFF36F8FF4E70000C012002004ED00E00D
:102580002DE9F047DDE909840E46174682469100A1
:102590009946089DA522206BFDF7C9FF6FF0030146
:1025A000206B01EB8701084420F00707780705D06E
:1025B00040F22B3219A11EA0FDF7CEFE00202218FA
:1025C000315C82F83410315C11B1401C1028F6D314
:1025D000002684F84360202D00D31F25E562C4E95E
:1025E0001356201D00F011FC04F1180000F00DFC42
:1025F0002461C5F120006462A061666584F85860BA
:102600004A465146384600F02DFB2060B8F1000FD5
:1026100001D0C8F80040BDE8F08700002E2E5C46CF
:1026200072656552544F535C7461736B732E630013
:102630004572726F723A25732C25640D0A000000F2
:1026400030B5114900E011460A688242FBD34B685D
:102650005C18844203D140681844486008464368C7
:102660001C18944209D1084C103C2468A24209D09D
:1026700052681A4442600A6812680260814200D0BF
:10268000086030BD0460F9E7B800002070B5002490
:1026900041600B4D0061914206D8D11A8269914286
:1026A00006D2011D286907E09A4203D2994201D35C
:1026B000012403E0011DE86800F0AAFB204670BD7C
:1026C0008800002010B5044600F0C6FBA06B20B1C6
:1026D000002400F0FDFB204610BD0124F9E70000B6
:1026E0002DE9F34100980F460026846C2CB940F682
:1026F000CE1216A11AA0FDF72FFEA06BE16B884247
:1027000005D340F6CF1211A115A0FDF725FEA06B51
:10271000E16B88420CD294F945503A46694620460E
:10272000FFF7B3FE0646681C05D06D1C84F84550C3
:102730003046BDE8FC81606A0028F9D004F124002D
:1027400001F0F0FB0028F3D00126F1E72E2E5C46C5
:1027500072656552544F535C71756575652E6300E3
:102760004572726F723A25732C25640D0A000000C1
:10277000F8B5054614480E46C068C068C468201DF8
:1027800000F026FBE069012817D1A0692B4641190A
:1027900032462046FFF77AFF78B100200346014613
:1027A00000902A46204601F0EFFC30B907494FF46B
:1027B000027201F11800FDF7CFFD616A01B02046F9
:1027C000BDE8F0400847000088000020EC40000809
:1027D00070B586B02F4E53E00198002806DADDE987
:1027E0000301029A90470198002849DB039C606925
:1027F00010B1201D00F0ECFA05A800F0A7F805467E
:1028000001980A283CD2DFE800F00505053B27388F
:1028100005053B270298A169034601442A46204644
:10282000FFF734FF00282BD0616A20468847E06913
:10283000012825D1002000900298A16900234218A8
:102840001946204601F0A0FCD0B940F2213212A175
:1028500017A0FDF781FD13E00298A06128B94FF49D
:102860004E720DA112A0FDF777FDA0692B4641190C
:102870001A462046FFF70AFF02E0204600F05AFB06
:1028800000231A4601A9306800F0B0FF0028A3D148
:1028900006B070BD880000202E2E5C467265655221
:1028A000544F535C74696D6572732E6300000000B1
:1028B0004572726F723A25732C25640D0A00000070
:1028C000F8B50D46064600F06FFE684600F03EF88B
:1028D0000446009810B101F071FBF8BD1148ADB18C
:1028E00001690968D9B10025311B2A46006800F04A
:1028F000D7FB01F063FB0028EFD10B494FF080506C
:102900000860BFF34F8FBFF36F8FF8BDA642EBD8BF
:1029100001F054FB21463046FFF72AFFF8BD0125A0
:10292000E2E700008800002004ED00E00648416B6B
:10293000096829B1416BC968C968496881627047F3
:102940004FF0FF31FAE700004C00002070B505465B
:1029500001F014FA064E0446B068844203D200F037
:1029600009F8012000E0002028602046B46070BD16
:1029700088000020F8B5184E26E0C068C4680568D5
:10298000201D00F025FA616A20468847E069012889
:102990001AD1A0692844A84206D924616060211D8B
:1029A000F06800F035FA0FE0002003460146009081
:1029B0002A46204601F0E8FB30B9084940F292323D
:1029C00001F11800FDF7C8FCF06801680029D4D1B6
:1029D0003169C6E90310F8BD88000020EC4000080A
:1029E00008484068401C05D040F20F1206A111A013
:1029F000FDF7B2FC502080F31188BFF34F8FBFF377
:102A00006F8FFEE79C0000202E2E5C46726565529B
:102A1000544F535C706F727461626C655C525644C3
:102A2000535C41524D5F434D34465C706F72742E5F
:102A3000630000004572726F723A25732C25640D95
:102A40000A00000070B50025040005D140F2816243
:102A500007A10CA0FDF780FC0E496069884205D1F2
:102A6000A06A2839884201D000B90125284670BDE6
:102A70002E2E5C4672656552544F535C7461736BC5
:102A8000732E63004572726F723A25732C25640DA4
:102A90000A00000090150020084CE068016839B178
:102AA000002139B10020FFF70BFFFFF791FEF4E79B
:102AB0000121F6E7C0680068F5E700008800002003
:102AC0002DE9F041044600F0C7F994F9455004F1AE
:102AD000240610E0A06C20B100212046FFF700FE84
:102AE00004E0606A48B1304601F01CFA08B100F019
:102AF00095FB6D1E6DB2002DECDC4FF0FF3684F8B7
:102B0000456000F0E5F900F0A7F994F9445004F1AC
:102B1000100709E0206948B1384601F003FA08B10E
:102B200000F07CFB6D1E6DB2002DF3DC84F8446078
:102B3000BDE8F04100F0CCB92DE9F0410546002692
:102B400000F032FD324F386808B9FFF7DFFCF86853
:102B500005424FD1002D4DD0083568070BD005F048
:102B60000700C0F108000544680704D0BF2229A16E
:102B700032A0FDF7F1FB002D3CD07868854239D8B2
:102B8000234910310846046801E021460446606884
:102B9000A84202D220680028F7D13868B84684429B
:102BA00028D00E682068086060680836401B10282E
:102BB0000ED96719780704D0EC2216A11FA0FDF7E3
:102BC000CBFB6068401B786038466560FFF738FDD6
:102BD0006168D8F804004246401AC8F80400D8F8E2
:102BE0000830984200D29060D8F80C0001430020D1
:102BF000C4E9000101F0E2F9700705D04FF49672C4
:102C000004A10EA0FDF7A8FB3046BDE8F08100004E
:102C1000A80000202E2E5C4672656552544F535C0E
:102C2000706F727461626C655C4D656D4D616E674D
:102C30005C686561705F342E630000004572726FDE
:102C4000723A25732C25640D0A00000004490868B7
:102C500018B10868026D521C0265086870470000D0
:102C60004C00002010B5031F4FF080741C601B1F28
:102C700021F001011960191F044B0B6014390A601F
:102C8000091F6FF0020244380A6010BDE1290008F4
:102C90001CB500F0E1F81B490220CDE9000100233A
:102CA000322219A11B4801F02FF816490320091DF3
:102CB000CDE900010023322217A11A4801F024F8BF
:102CC000104904200831CDE900010023802216A11B
:102CD000184801F019F80B4905200C31CDE9000125
:102CE0000023802210A1144801F00EF8054C083C86
:102CF000606900F0F1FB606800F02AFABDE81C4052
:102D000000F0E6B8080000204B45595F7461736B12
:102D1000000000004D1A000875736172745F7461E1
:102D2000736B0000752D0008666C6F61745F7461D1
:102D3000736B000069080008DD0700080B4910B537
:102D4000094AC1E9002000208860C86008618861E4
:102D50000C2048610846FEF7FDFCBDE8104001224A
:102D600003490248FEF764BD0010014088110020AD
:102D700038000020124D134E134F144C4FF0000832
:102D80002088010411D5C0F30D0330783038286055
:102D9000012008E02968325C01EB810149003039EB
:102DA0001144401C29609842F4DB38680168C9432B
:102DB0004906FBD4A4F80080642000F093F9DFE713
:102DC00000000020C0100020881100203A000020E0
:102DD000D0E9013201699A60D0E901235A604A685A
:102DE000824201D182684A60002202610868401E66
:102DF0000860704700F108014FF0FF32C0E901128E
:102E0000C1600161002101607047002101617047CC
:102E100030B50C68621C02D000F1080202E00269C1
:102E200004E01A4653681D68A542FAD953684B60FE
:102E300099608A60516008610168491C016030BD79
:102E400042684A6093688B6093685960916008613A
:102E50000168491C01607047502080F31188BFF35E
:102E60004F8FBFF36F8F09494868401C48600128A5
:102E70000AD10748006810F0FF0F05D040F2B912E0
:102E800004A10FA0FDF768BA704700009C00002065
:102E900004ED00E02E2E5C4672656552544F535C83
:102EA000706F727461626C655C525644535C41523F
:102EB0004D5F434D34465C706F72742E63000000AA
:102EC0004572726F723A25732C25640D0A0000005A
:102ED00010B5084C606828B94FF4E07206A111A043
:102EE000FDF73AFA6068401E606001D180F31188F6
:102EF00010BD00009C0000202E2E5C4672656552BD
:102F0000544F535C706F727461626C655C525644CE
:102F1000535C41524D5F434D34465C706F72742E6A
:102F2000630000004572726F723A25732C25640DA0
:102F30000A00000070B500282AD0164DA0F1080440
:102F40006068E968084205D14FF4A07212A11CA084
:102F5000FDF702FA206828B140F241120EA118A034
:102F6000FDF7FAF96068E968084211D02268002A82
:102F70000ED18843606000F017FB60686968084400
:102F800068602046FFF75CFBBDE8704001F016B8B2
:102F900070BD0000A80000202E2E5C4672656552B0
:102FA000544F535C706F727461626C655C4D656DFB
:102FB0004D616E675C686561705F342E6300000070
:102FC0004572726F723A25732C25640D0A00000059
:102FD00006484FF47A710068B0FBF1F14FF0E02041
:102FE000491E41610721016170470000180000205F
:102FF00010B5FDF78BF9104C10280CD300F1E02030
:1030000090F8F0032178884205D24FF440720BA16A
:1030100015A0FDF7A1F918480068A16800F4E06068
:10302000884207D9BDE810404FF4447203A10EA0B6
:10303000FDF792B910BD00009C0000202E2E5C46CA
:1030400072656552544F535C706F727461626C6547
:103050005C525644535C41524D5F434D34465C7064
:103060006F72742E630000004572726F723A25739E
:103070002C25640D0A0000000CED00E010B5074B94
:10308000002253F832401CB1521C082AF9D310BD5B
:1030900043F8321003EBC201486010BD80120020DB
:1030A00070B515460E460446FFF7D6FE94F9441057
:1030B0000020491C01D184F8440094F94510491CB2
:1030C00001D184F84500FFF703FFA06B28B92A4619
:1030D000314604F1240000F0D1F82046BDE87040EC
:1030E000FFF7EEBC10B5040012D00E49096B29B1F0
:1030F00040F2CF420CA111A0FDF72EF900F054FAD6
:1031000000212046FFF7BCF800F058FF002807D147
:103110000E494FF080500860BFF34F8FBFF36F8FA1
:1031200010BD00004C0000202E2E5C4672656552DA
:10313000544F535C7461736B732E63004572726FEE
:10314000723A25732C25640D0A00000004ED00E09E
:1031500070B50446FFF780FE234D04B92C68201D8E
:10316000FFF736FE58B9E06A204A00EB800152F8BA
:10317000211021B901218140286988432861A06A72
:1031800018B104F11800FFF723FE686A401C68625A
:103190002868844207D1211D1548FFF751FE686851
:1031A000401C686007E0A868401EA8602046FFF742
:1031B000A2F9FFF7BBFBFFF78BFE6869002812D06E
:1031C000286884420FD1286B28B140F2654209A1DA
:1031D0000DA0FDF7C1F810494FF080500860BFF313
:1031E0004F8FBFF36F8F70BD4C000020C0120020C6
:1031F0007C1500202E2E5C4672656552544F535C40
:103200007461736B732E63004572726F723A25732B
:103210002C25640D0A00000004ED00E001490120A6
:10322000C86170474C00002070B50D46040005D100
:1032300040F6063207A10CA0FDF78EF80E48016893
:1032400020461831FFF7E4FD2846BDE87040012113
:10325000FFF716B82E2E5C4672656552544F535CCC
:103260007461736B732E63004572726F723A2573CB
:103270002C25640D0A0000004C00002070B5144697
:103280000E46050005D140F6313209A10DA0FDF72B
:1032900063F81048016828461831FFF7D1FD0CB1DA
:1032A0004FF0FF3621463046BDE87040FEF7E8BFDC
:1032B0002E2E5C4672656552544F535C7461736B7D
:1032C000732E63004572726F723A25732C25640D5C
:1032D0000A0000004C00002070B5040039D01D4DDC
:1032E000E06A2968C96A884233D2A069002804DBF1
:1032F0002868C06AC0F12000A061E06A164E00EBA9
:103300008000616906EB800081421FD1201DFFF71C
:103310005FFD012150B9E06A00EB800256F82220DF
:1033200022B92A6901FA00F082432A612868C06A3A
:10333000E0622A6981401143296100EB800006EBBD
:103340008000211DBDE87040FFF77ABD2868C06A83
:10335000E06270BD4C000020C012002070B5040077
:103360002BD01A4D286884422FD0FFF775FD2046D8
:10337000FFF768FBE8B1201DFFF72AFDE06A012195
:103380002A69814011432961114900EB800001EB5A
:103390008000211DFFF754FDE06A2968C96A884250
:1033A00007D30C494FF080500860BFF34F8FBFF335
:1033B0006F8FBDE87040FFF78BBDBDE8704040F2F5
:1033C000AB6205A109A0FCF7C7BF70BD4C0000208F
:1033D000C012002004ED00E02E2E5C46726565529E
:1033E000544F535C7461736B732E63004572726F3C
:1033F000723A25732C25640D0A00000010B50400F4
:1034000005D140F6C13205A109A0FCF7A5FF0C4883
:10341000016A2160C068606010BD00002E2E5C460D
:1034200072656552544F535C7461736B732E630005
:103430004572726F723A25732C25640D0A000000E4
:103440004C0000201CB517480024CDE9004023465D
:10345000822215A1164800F057FC012803D100F084
:1034600059FE01280AD0401C1BD102B040F28472E0
:10347000BDE810400FA114A0FCF76EBF502080F3F0
:103480001188BFF34F8FBFF36F8F06484FF0FF31A6
:103490002C38816201214161C460BDE81C4000F00C
:1034A000C9B81CBD7800002049444C45000000000C
:1034B000592500082E2E5C4672656552544F535CA8
:1034C0007461736B732E63004572726F723A257369
:1034D0002C25640D0A00000070B50446FFF7BCFC03
:1034E000244D04B92C68201DFFF772FC58B9E06A1E
:1034F000214A00EB800152F8211021B901218140BD
:10350000286988432861A06A18B104F11800FFF700
:103510005FFC211D1948FFF793FCFFF7D9FC686990
:1035200028B1FFF799FCFFF701FAFFF7D1FC2868F3
:10353000844211D1686980B1286B28B140F257628A
:103540000FA114A0FCF708FF16494FF08050086047
:10355000BFF34F8FBFF36F8F70BD0848A968006835
:10356000884202D10020286070BDBDE8704000F0A4
:1035700023B800004C000020C0120020901500204D
:103580002E2E5C4672656552544F535C7461736BAA
:10359000732E63004572726F723A25732C25640D89
:1035A0000A00000004ED00E00248016B491C0163C1
:1035B000704700004C00002070B5134D286B10B10F
:1035C0000120E86170BD0020E86128690F4EB0FA63
:1035D00080F0C0F11F0000EB800456F8240028B9E9
:1035E00040F6F6220AA10FA0FCF7B6FE06EB840017
:1035F00000F10802416849684160914201D149687F
:103600004160C868286070BD4C000020C0120020D6
:103610002E2E5C4672656552544F535C7461736B19
:10362000732E63004572726F723A25732C25640DF8
:103630000A0000001CB5304C20683049884205D192
:1036400040F259122EA139A0FCF786FE20682B49C2
:10365000491E884205D14FF4AD7229A133A0FCF771
:103660007BFE364C20780190FF20207020788DF86A
:1036700000009DF800009DF8001000F0F000884266
:1036800005D040F273121EA128A0FCF765FE9DF83C
:1036900000002B4A00F0500010700720906007E0F7
:1036A0009068401E90609DF8000040008DF800007A
:1036B0009DF800000006F3D4107A000200F4E060E8
:1036C0009060019820700C482030016841F470012E
:1036D0000160016841F070410160FFF779FC002052
:1036E0005060FCF7DBFD1748016841F04041016084
:1036F000FCF7C4FD00201CBD00ED00E071C20F41CD
:103700002E2E5C4672656552544F535C706F727416
:1037100061626C655C525644535C41524D5F434D4F
:1037200034465C706F72742E630000004572726FD5
:10373000723A25732C25640D0A00000000E400E0B5
:103740009C00002034EF00E010B5502080F3118879
:10375000BFF34F8FBFF36F8F00F016FB18B1044912
:103760004FF080500860002080F3118810BD0000E9
:1037700004ED00E02DE9F04117460E46050005D1A5
:103780004FF4C47210A115A0FCF7E6FDBEB105FB15
:1037900006F05430FFF7D0F904000ED004F15400C5
:1037A0007EB12060C4E90F562046012100F0E0F808
:1037B00084F8507000212046A164BDE8F08100200B
:1037C000E7E72460EEE700002E2E5C467265655246
:1037D000544F535C71756575652E63004572726F49
:1037E000723A25732C25640D0A0000002DE9FF4F65
:1037F00083B09B468A4604004FF0000605D140F294
:10380000DC4251A155A0FCF7A7FDBAF1000F07D18A
:10381000206C28B140F2DD424BA150A0FCF79CFD8A
:1038200000F09EFA38B9059828B14FF49C6246A181
:103830004AA0FCF791FD4FF000094FF08057DFF8E8
:103840002C81FFF709FBA56B45B351462046E6687E
:10385000FEF708FEBBF1000F13D0E660606A50B1BE
:1038600004F1240000F05EFB28B1C8F80070BFF33B
:103870004F8FBFF36F8FFFF72BFB012007B0BDE821
:10388000F08F6D1EA563206810B9FFF7DFF9606047
:1038900020690028EFD004F11000E3E7059808B193
:1038A0001EB106E0FFF714FB27E06846FFF7A6FD10
:1038B0000126FFF70DFBFFF777FEFFF7CDFA94F92E
:1038C0004400401C01D184F8449094F94500401C08
:1038D00001D184F84590FFF7FBFA05A9684600F08E
:1038E000CFF9002820460AD0FFF7EAF800F066FB7F
:1038F0002046FEF7E7FE0028A3D00020BEE7FEF733
:10390000E1FED8B1206830B9FFF7A6FA6068FFF78A
:10391000E3FCFFF7DDFA04F124000599FFF784FCCE
:103920002046FFF7CDF800F049FB002889D1C8F800
:103930000070BFF34F8FBFF36F8F82E72046FFF712
:10394000BFF800F03BFB7CE72E2E5C4672656552AB
:10395000544F535C71756575652E63004572726FC7
:10396000723A25732C25640D0A00000004ED00E076
:1039700070B50D46040005D140F21B121CA121A018
:10398000FCF7EAFCFFF768FAD4E90F20216802FB94
:10399000001161600021A1632168A1600A46D4E999
:1039A0000F01401E00FB0121E16021464FF0FF3076
:1039B00001F8440F487004F110004DB1FFF71AFAF6
:1039C00004F12400FFF716FAFFF782FA012070BD18
:1039D00021690029F8D000F0A5FA0028F4D00D499B
:1039E0004FF080500860BFF34F8FBFF36F8FEBE74E
:1039F0002E2E5C4672656552544F535C7175657529
:103A0000652E63004572726F723A25732C25640D22
:103A10000A00000004ED00E02DE9FF4F83B0994655
:103A20008B4604004FF0000605D140F2D92252A186
:103A300056A0FCF791FCBBF1000F07D1206C28B118
:103A400040F2DA224CA151A0FCF786FCB9F1020F3A
:103A500008D1E06B012805D040F2DB2246A14BA043
:103A6000FCF77AFC00F07CF938B9059828B140F2EF
:103A7000DE2241A145A0FCF76FFC4FF0000A4FF099
:103A80008057DFF81881FFF7E7F9A06BE16B8842F8
:103A900006D3B9F1020F03D0059800B316B325E0A1
:103AA0004A4659462046FEF7F0FCA16C21B1494632
:103AB0002046FEF715FE05E0616A19B104F1240005
:103AC00000F030FA28B1C8F80070BFF34F8FBFF391
:103AD0006F8FFFF7FDF9012007B0BDE8F08FFFF70A
:103AE000F7F921E06846FFF789FC0126FFF7F0F9B6
:103AF000FFF75AFDFFF7B0F994F94400401C01D1DB
:103B000084F844A094F94500401C01D184F845A0F4
:103B1000FFF7DEF905A9684600F0B2F830B120469B
:103B2000FEF7CEFF00F04AFA0020D5E7FFF794F940
:103B3000A06BE16B884201D1012500E00025FFF771
:103B4000C7F995B104F110000599FFF76DFB204608
:103B5000FEF7B6FF00F032FA002894D1C8F80070E2
:103B6000BFF34F8FBFF36F8F8DE72046FEF7A8FF9F
:103B700000F024FA87E700002E2E5C46726565523D
:103B8000544F535C71756575652E63004572726F95
:103B9000723A25732C25640D0A00000004ED00E044
:103BA0002DE9F047984615468946040005D140F2B4
:103BB0009F322AA12EA0FCF7CFFBB9F1000F07D14D
:103BC000206C28B14FF4687224A129A0FCF7C4FB33
:103BD000B8F1020F08D1E06B012805D040F2A13204
:103BE0001EA123A0FCF7B8FBFFF702FA5020EFF369
:103BF000118780F31188BFF34F8FBFF36F8FA06BD6
:103C0000E16B884207D3B8F1020F04D0002087F39C
:103C10001188BDE8F08794F9456042464946204640
:103C2000FEF733FC701C04D0761C84F8456001203C
:103C3000EDE7A06C012620B141462046FEF750FD7D
:103C400006E0606A0028F2D004F1240000F06AF96E
:103C50000028ECD0002DEAD02E60E8E72E2E5C463E
:103C600072656552544F535C71756575652E6300BE
:103C70004572726F723A25732C25640D0A0000009C
:103C800070B50D46040005D140F6CB3214A119A041
:103C9000FCF762FB2DB940F6CC3211A115A0FCF760
:103CA0005BFBFFF7D9F8174AD06829684B1C0FD087
:103CB0002368126A934202D0626882420AD962681B
:103CC000801A884206D2081A28602046FFF796FB21
:103CD000002400E00124FFF7FBF8204670BD00003F
:103CE0002E2E5C4672656552544F535C7461736B43
:103CF000732E63004572726F723A25732C25640D22
:103D00000A0000004C0000202DE9FF5F8346DDE93A
:103D10000E87994616468A469000FEF70DFF05006D
:103D20001AD05C20FEF708FF040012D025630021A2
:103D3000CDE90241CDE900874B463246514658460F
:103D4000FEF71EFC2046FEF7D3FA012004B0BDE8C2
:103D5000F09F2846FFF7EEF84FF0FF30F6E700003F
:103D60000548416919B1006B18B100207047012066
:103D700070470220704700004C0000200148C068D6
:103D8000704700004C0000202DE9F0412D4F002627
:103D9000386B40B1B869401CB861F86900B10126C0
:103DA0003046BDE8F081FD686D1CFD6011D1786B77
:103DB000006828B140F6D91223A128A0FCF7CCFA5C
:103DC000786BB96B7963B863386A401C3862FEF768
:103DD000ADFDB86ADFF89480854209D3786B00683E
:103DE00080B1786BC068C468606885420DD2B862E3
:103DF0003868C06A00EB800158F821000128CCD94E
:103E00000126CAE74FF0FF30F1E7201DFEF7E0FF83
:103E1000A06A18B104F11800FEF7DAFFE06A012188
:103E20003A6981401143396100EB800108EB810060
:103E3000211DFFF705F8E06A3968C96A8842CDD3C9
:103E40000126CBE74C0000202E2E5C4672656552A1
:103E5000544F535C7461736B732E63004572726FC1
:103E6000723A25732C25640D0A000000C012002050
:103E700070B504004FF000063CD01F4D2868844206
:103E800005D040F6C7621DA121A0FCF765FA206DA0
:103E900028B940F6C96219A11DA0FCF75DFA206D92
:103EA000401E2065E26CE16A914223D010BB201DC8
:103EB000FEF78EFF1A49012250B9E06A00EB800339
:103EC00051F8233023B92B6902FA00F083432B61A8
:103ED000E06CE062C0F12000A061E06A2B698240E2
:103EE0001A432A6100EB800001EB8000211DFEF7E0
:103EF000A7FF0126304670BD4C0000202E2E5C46E8
:103F000072656552544F535C7461736B732E63001A
:103F10004572726F723A25732C25640D0A000000F9
:103F2000C01200202DE9F041C068C4682CB940F6E9
:103F3000613216A11AA0FCF70FFA04F11800074627
:103F4000FEF746FF1A4D286B012660B13946194825
:103F5000FEF776FFE06A2968C96A884213D9012012
:103F6000EE61BDE8F081201DFEF732FFE06A2A69AC
:103F700006FA00F1114329610F4900EB800001EBC3
:103F80008000211DE4E70020EBE700002E2E5C46B8
:103F900072656552544F535C7461736B732E63008A
:103FA0004572726F723A25732C25640D0A00000069
:103FB0004C00002068150020C01200202DE9F047B9
:103FC0002B4D00242746286B28B94FF4FD6229A108
:103FD0002DA0FCF7C1F9FEF73FFF286B401E2863B8
:103FE000286BE8BBA8682C490126C8B3A1F52A793B
:103FF0008846D8F80010E9B1D8F80C00C46804F17C
:104000001800FEF7E5FE201DFEF7E2FEE06A2A69D1
:1040100006FA00F11143296100EB800109EB8100F0
:10402000211DFEF70DFFE06A2968C96A8842E0D3C6
:10403000EE61DEE70CB1FEF779FCAC693CB1FFF74D
:10404000A3FE00B1EE61641EF9D10020A861E86909
:1040500030B11249012738070860BFF34F8F00E0E5
:1040600001E0BFF36F8FFEF733FF3846BDE8F087FE
:104070004C0000202E2E5C4672656552544F535CF6
:104080007461736B732E63004572726F723A25739D
:104090002C25640D0A0000006815002004ED00E0E6
:1040A0002DE9F0470746994616460D462C20DDF8C7
:1040B00020A0FEF741FD040014D0B8464F46D1467B
:1040C0002DB94FF4C67209A10EA0FCF745F9FEF711
:1040D00077F904F11801C4F8008081E8E002201D9E
:1040E000FEF793FE2046BDE8F08700002E2E5C46CA
:1040F00072656552544F535C74696D6572732E63BB
:10410000000000004572726F723A25732C25640D11
:104110000A0000001CB50024FEF752F90C480068A4
:1041200068B10B491F20091DCDE9000100234FF4A0
:10413000827208A10948FFF7E7FD040005D140F2AB
:10414000331207A10CA0FCF707F920461CBD0000A4
:1041500088000020546D722053766300992A00086D
:104160002E2E5C4672656552544F535C74696D65C2
:1041700072732E63000000004572726F723A2573ED
:104180002C25640D0A0000002DE9FF47DDF830A062
:10419000994690460D4606004FF0000705D14FF4B2
:1041A000D37212A117A0FCF7D7F81A4C206880B17F
:1041B000CDE900580296062D11DAFFF7D1FD02284D
:1041C0004FF0000309D0002269462068FFF724FC65
:1041D000074604B03846BDE8F0875246F4E70023AE
:1041E0004A466946FFF7DCFCF2E700002E2E5C46EB
:1041F00072656552544F535C74696D6572732E63BA
:10420000000000004572726F723A25732C25640D10
:104210000A0000008800002021F00042A2F1605254
:10422000B2F5801F01F0004328BFD2F17F6C0BD99B
:104230005FEA001C43EAC20242EB507018BF7047AD
:1042400028BF20F001007047B2F5801FBCBF1846A0
:1042500070474FEA410C1CF5001F02D2084600F0DF
:1042600022B970B500F0C6F800000089FFF7F6BF6C
:104270004FF00040A0F580007047B0FA80F310FACC
:1042800003F10AD0C3F11D0303F580634FEA4150E7
:104290004FEA035202EBD12170474FF00000704704
:1042A000DFF848C170B51CEA111E1EBF1CEA1315C9
:1042B0009EEA0C0F95EA0C0F00F06F8081EA030470
:1042C00023EA4C134EEAD47E21EA4C1141F48011CA
:1042D00043F48013AE44A1FB024CA0FB0365AEF196
:1042E0007F7E361955EB0C05A1FB034C4CF1000306
:1042F000A0FB021C16EB0C06654153F100030942BA
:1043000018BF46F0010613F4007F0BD14FEA0331CA
:104310004FEA0530340341EA155140EA16506FF078
:1043200003020AE04FEAC3214FEAC520F40241EA42
:10433000555140EA56506FF0020202EB2E4201EB5B
:10434000025585EACE710AD05FEA440C18BF24F00A
:10435000004450F1000041F1000120EAD47040F225
:10436000FE7C624500D270BDA84214BF4FF080446D
:104370004FF04044002E08BF0024BEF1806FA8BF5C
:10438000A1F1C041BDE8704080F282804FF0000092
:1043900001F1C04101F0004170479EEA0C0F0CEAA8
:1043A000131518BF95EA0C0F06D04FF0000081EAF4
:1043B000030E0EF0004170BD00F01CF88900013EB4
:1043C00000F007B800F009B84FEA430C5FEA5C5C04
:1043D00008D081EA030100F05BB84FEA410C5FEAC4
:1043E0005C5CF6D14FF00000014970470000FF0708
:1043F0000000F87F0EF1020E2EF0030E5EF8046B43
:10440000364205D4012A43EB030515F5001F12D8E7
:10441000012841EB010C1CF5001F0CD80ED14FEA0E
:10442000D17C15F5001F0CEB4C0C0CF1020C08BFF5
:104430004CEBD37C04E04FF0080C01E04FEAD37C56
:104440000CEB4C0526FA05F606F00706B6F1040C4F
:1044500006D20EEB860CBDE870404CF0010C6047B4
:10446000DFE80CF0090B02024FF000414FF00000B2
:10447000A1F5002170BD19461046012851EB010439
:1044800018BFD4F5001484BF002001F0004170BDB6
:104490000808A0F500114FEA310170474FF0407055
:1044A000E1EE100A7047FF2141EAD050C005704785
:1044B00000000000010203040102030406070809CA
:1044C00000000000000000000000000000000000EC
:1044D0003F400000000000000000300040003000BD
:1044E0004000000009000BC03D000BC03D0009006A
:1044F00018C024407FE0224031800000180024C012
:104500001B000D803240018003801C4027401C802E
:1045100007400040100060000000000000000000A4
:104520000000000000001F802040402000004020CC
:1045300020401F8000000000090006001F800600C8
:1045400009000000040004003F8004000400000093
:1045500000100060000000000000000004000400E3
:1045600004000400040000000000004000000000FF
:1045700000000000002001C00600380040000000DC
:104580001F802040204020401F800000000010407D
:104590003FC000400000000018C0214022402440DD
:1045A0001840000010802040244024401B80000060
:1045B00002000D0011003FC0014000003C8024407B
:1045C00024402440238000001F80244024403440A5
:1045D000038000003000200027C0380020000000C9
:1045E0001B802440244024401B8000001C0022C06B
:1045F000224022401F800000000000000840000010
:104600000000000000000000046000000000000046
:10461000000004000A001100208040400900090049
:10462000090009000900000000004040208011003E
:104630000A00040018002000234024001800000095
:104640001F802040274029401F400000004007C035
:1046500039000F0001C0004020403FC024402440EA
:104660001B8000001F802040204020403080000040
:1046700020403FC0204020401F80000020403FC01D
:1046800024402E4030C0000020403FC024402E0077
:10469000300000000F0010802040224033800200D4
:1046A00020403FC0040004003FC020402040204084
:1046B0003FC02040204000000060202020203FC05C
:1046C0002000200020403FC024400B0030C020408C
:1046D00020403FC020400040004000C03FC03C00A0
:1046E00003C03C003FC0000020403FC00C402300FE
:1046F0003FC020001F802040204020401F8000003D
:1047000020403FC024402400180000001F802140AA
:10471000214020E01FA0000020403FC02440260090
:1047200019C0004018C024402440224031800000BD
:10473000300020403FC020403000000020003F807B
:10474000004000403F80200020003E0001C00700E4
:1047500038002000380007C03C0007C038000000C7
:10476000204039C0060039C02040000020003840F9
:1047700007C0384020000000304021C026403840AB
:1047800020C00000000000007FE04020402000002A
:10479000000070000C00038000400000000040207A
:1047A00040207FE0000000000000200040002000CA
:1047B0000000000000100010001000100010001099
:1047C0000000000040000000000000000000028027
:1047D0000540054003C0004020003FC004400440A5
:1047E00003800000000003800440044006400000F5
:1047F00000000380044024403FC0004000000380CC
:104800000540054003400000000004401FC0244054
:1048100024402000000002E005500550065004200E
:1048200020403FC00440040003C00040000004409A
:1048300027C000400000000000100010041027E016
:104840000000000020403FC00140070004C00440B9
:10485000204020403FC000400040000007C004004E
:1048600007C0040003C00000044007C00440040067
:1048700003C00040000003800440044003800000A7
:10488000041007F00450044003800000000003807F
:104890000440045007F00010044007C00240040028
:1048A00004000000000006400540054004C0000070
:1048B000000004001F800440004000000400078046
:1048C0000040044007C000400400070004C001800D
:1048D00006000400060001C0070001C00600000039
:1048E000044006C0010006C0044000000410071088
:1048F00004E00180060004000000044005C00640FA
:10490000044000000000000004007BE040200000A4
:10491000000000000000FFF0000000000000402048
:104920007BE0040000000000400080004000200008
:104930002000400000000000000000000000000017
:10494000000000000000000000001FCC000C000070
:104950000000000000000800300060000800300087
:1049600060000000022003FC1E20022003FC1E2029
:104970000220000000000E1811043FFF10840C7884
:10498000000000000F0010840F3800C00778188462
:104990000078000000780F8410C411240E9800E401
:1049A000008400080800680070000000000000009B
:1049B0000000000000000000000007E018182004BC
:1049C00040020000000040022004181807E0000028
:1049D000000000000240024001800FF00180024010
:1049E000024000000080008000800FF800800080FE
:1049F000008000000001000D000E0000000000001B
:104A00000000000000000080008000800080008026
:104A1000008000800000000C000C0000000000007E
:104A20000000000000000006001800600180060081
:104A300018002000000007F00808100410040808FF
:104A400007F000000000080408041FFC0004000434
:104A50000000000000000E0C1014102410441184FB
:104A60000E0C000000000C18100411041104128830
:104A70000C700000000000E00320042408241FFC48
:104A80000024000000001F981084110411041088F5
:104A900010700000000007F0088811041104188845
:104AA0000070000000001C00100010FC13001C002F
:104AB0001000000000000E381144108410841144CE
:104AC0000E38000000000700088C104410440888CD
:104AD00007F00000000000000000030C030C0000C1
:104AE00000000000000000000001010600000000BE
:104AF00000000000000000800140022004100808AF
:104B000010040000022002200220022002200220C5
:104B100002200000000010040808041002200140D8
:104B20000080000000000E001200100C106C1080BD
:104B30000F00000003E00C1813E4142417C4082825
:104B400007D000000004003C03C41C40074000E400
:104B5000001C000410041FFC1104110411040E8831
:104B60000070000003E00C1810041004100410087A
:104B70001C10000010041FFC10041004100408088E
:104B800007F0000010041FFC1104110417C41004E6
:104B90000818000010041FFC1104110017C01000B9
:104BA0000800000003E00C181004100410441C78E6
:104BB0000040000010041FFC10840080008010845E
:104BC0001FFC10040000100410041FFC100410044B
:104BD0000000000000030001100110011FFE100082
:104BE0001000000010041FFC110403801464181C42
:104BF0001004000010041FFC100400040004000452
:104C0000000C000010041FFC1F0000FC1F001FFC14
:104C10001004000010041FFC0C04030000E0101836
:104C20001FFC100007F00808100410041004080806
:104C300007F0000010041FFC10841080108010800A
:104C40000F00000007F0081810241024101C080A98
:104C500007F2000010041FFC1104110011C01130F4
:104C60000E0C000400000E1C11041084108410446B
:104C70001C3800001800100010041FFC1004100065
:104C80001800000010001FF81004000400041004B5
:104C90001FF8100010001E0011E0001C00701380AF
:104CA0001C0010001FC0103C00E01F0000E0103C82
:104CB0001FC000001004180C163401C001C01634C7
:104CC000180C100410001C00130400FC13041C003A
:104CD000100000000804101C1064108413041C044D
:104CE000101800000000000000007FFE400240029B
:104CF00040020000000030000C0003800060001C37
:104D00000003000000004002400240027FFE00005D
:104D100000000000000000002000400040004000B3
:104D2000200000000001000100010001000100015D
:104D300000010001000040004000200000000000D1
:104D400000000000000000980124014401440144D7
:104D500000FC000410001FFC00880104010400880E
:104D600000700000000000700088010401040104CC
:104D70000088000000000070008801040104110890
:104D80001FFC0004000000F80144014401440144F8
:104D900000C800000000010401040FFC110411040C
:104DA00011001800000000D601290129012901C9BC
:104DB0000106000010041FFC008401000100010432
:104DC00000FC000400000104190419FC00040004A4
:104DD000000000000000000300010101190119FE9C
:104DE0000000000010041FFC0024004001B4010C6E
:104DF000010400000000100410041FFC0004000463
:104E000000000000010401FC0104010001FC010498
:104E1000010000FC010401FC008401000100010408
:104E200000FC0004000000F8010401040104010476
:104E300000F80000010101FF008501040104008861
:104E400000700000000000700088010401040105EA
:104E500001FF00010104010401FC008401040100C0
:104E600001800000000000CC012401240124012461
:104E70000198000000000100010007F8010401048E
:104E800000000000010001F8000400040004010813
:104E900001FC0004010001800170000C00100160A1
:104EA0000180010001F0010C003001C00030010C54
:104EB00001F0010000000104018C00740170018CFC
:104EC00001040000010101810171000E0018016060
:104ED0000180010000000184010C013401440184BF
:104EE000010C0000000000000000000001003EFC7A
:104EF000400240020000000000000000FFFF000030
:104F0000000000000000400240023EFC01000000E2
:104F100000000000000060008000800040004000B1
:104F20002000200000000000000000000000000041
:104F30000000000000000000000000000000000071
:104F40000000000000000000000000000000000061
:104F5000000000000000000F80380FFE380F80387E
:104F60000000000000000000000000000000000041
:104F700000000100000600000C00003800003100B5
:104F8000000600000C0000380000300000000000A7
:104F90000000000061800067F807F9800061800070
:104FA00061800061800061800067F807F98000611E
:104FB0008000000000000000000001C0E003E0F0FD
:104FC0000630080418081FFFFE040E080787F003C8
:104FD00081E000000000000001F000060C00040465
:104FE00008060C7001F9C0000E00003BE000EC1850
:104FF000070808040C180003E00000000001E000AE
:1050000007F003F818041C0804170807E1D003C0D0
:10501000E00023B0003C0800200800001000000061
:105020000000000100003100003200001C00000000
:105030000000000000000000000000000000000070
:105040000000000000000000000000000000000060
:10505000000000007F0001FFC00780F00C00181066
:1050600000042000020000000000002000021000E8
:10507000040C00180780F001FFC0007F0000000052
:105080000000000000000000000000000000000020
:105090004200006600006600003C0000180003FFAC
:1050A000C0001800003C00006600006600004200DE
:1050B00000000000080000080000080000080000D0
:1050C000080001FFC00008000008000008000008F8
:1050D0000000080000000000000100003100003264
:1050E00000001C00000000000000000000000000A4
:1050F00000000000000000000000000008000008A0
:105100000000080000080000080000080000080077
:105110000008000008000008000000000000000077
:1051200000000000380000380000380000000000D7
:10513000000000000000000000000000000000006F
:1051400000000000000600001C000070000180004C
:105150000E0000380000C0000700001C00003000F6
:1051600000000000000000007F8001FFE00380706D
:1051700006001804000804000806001803807001E7
:10518000FFE0007F80000000000000000000010040
:105190000801000801000803FFF807FFF8000008F5
:1051A00000000800000800000000000000000001EE
:1051B000C03802C0580400980401180402180404FE
:1051C00018061C1803F81801E0F8000000000000A1
:1051D00000000001C0E003C0F00400080408080457
:1051E000080806180803F41801E7F00001E00000C1
:1051F00000000000000000000300000D000011008E
:1052000000610000810803010807FFF80FFFF800A4
:1052100001080001080000000000000000E007FC99
:10522000D0060808061008061008061008061838E8
:10523000060FF00607C0000000000000000000009C
:105240003F8001FFE00384300208180410080410B6
:1052500008041008071810030FF00007C000000032
:1052600000000000000003C0000700000600000668
:1052700000F80607F806180006E000070000060020
:105280000000000000000001E1E003F7F006341028
:10529000041808041808040C08040C08061618035F
:1052A000F3F001C1E000000000000000F80003FC82
:1052B000300306380402080402080402080404103B
:1052C0000308F001FFC0007F0000000000000000A4
:1052D00000000000000000000000000070380070B6
:1052E00038007038000000000000000000000000DE
:1052F00000000000000000000000000000000000AE
:10530000301A00301C000000000000000000000007
:105310000000000000000000000000080000140071
:1053200000220000410000808001004002002004B3
:10533000001008000800000000000000210000210B
:1053400000002100002100002100002100002100B8
:1053500000210000210000210000000000000000EA
:105360000000080008040010020020010040008036
:10537000800041000022000014000008000000002E
:1053800000000003C00004C000040000080038084A
:105390000F380808380810000C300007E00003C080
:1053A00000000000000000003F8000FFE00380706C
:1053B000020F1006708804C088048308047F8802E6
:1053C000C09003012000FE4000000800001800010A
:1053D000F8003E0801C20007020007E20000FE00DC
:1053E000001FC80001F8000038000008040008078A
:1053F000FFF807FFF8040808040808040808040870
:105400000806180803F41801E7F00001E0000000A6
:10541000000000003F8001FFE003807002001804DC
:10542000000804000804000804001006002007809B
:10543000C000000004000807FFF807FFF804000898
:105440000400080400080400180200100380700122
:10545000FFE0007F8000000004000807FFF807FF5E
:10546000F8040808040808040808040808043E08AA
:10547000040008060018010060000000040008078E
:10548000FFF807FFF80408080408000408000408EF
:1054900000043E000600000600000180000000003D
:1054A000000000003F8001FFE00380700600180448
:1054B00000080402080402080203F00783F0000257
:1054C0000000020004000807FFF807FFF8040808BE
:1054D0000008000008000008000008000408080791
:1054E000FFF807FFF80400080000000000000400B7
:1054F0000804000804000807FFF807FFF804000884
:105500000400080400080000000000000000000083
:10551000000600000700000104000104000104006F
:105520000307FFFE07FFFC04000004000004000066
:1055300004000807FFF807FFF8040C080018000033
:105540003E0004C7800503C80600F80400380400C4
:105550001800000804000807FFF807FFF804000817
:105560000000080000080000080000080000080013
:10557000001800006000000004000807FFF8078022
:105580000807FC00007FC00003F80007C000780097
:1055900007800807FFF807FFF80400080400080761
:1055A000FFF807000803C00000E000003800001EFC
:1055B000000007000001C00400F007FFF80400002D
:1055C000000000007F8001FFE003807006001804E7
:1055D000000804000806001803003001FFE0007F07
:1055E0008000000004000807FFF807FFF804040823
:1055F000040400040400040400040400060C000376
:10560000F80001F000000000000000007F8001FFB2
:10561000E00380700600880400880400C806003C8F
:1056200003003E01FFE6007F84000000040008073D
:10563000FFF807FFF8040808040800040C00040F32
:1056400000040BC00610F003F03801E00800000869
:1056500000000001E0F803F03006301004180804E0
:105660001808040C08040C080206180207F0078149
:10567000E0000000018000060000040000040000BB
:1056800004000807FFF807FFF804000804000004FE
:10569000000006000001800004000007FFE007FF93
:1056A000F0040018000008000008000008000008CE
:1056B00000000804001007FFE004000004000006DA
:1056C000000007E00007FE00041FE00001F80000F2
:1056D000380001E0043E0007C0000600000400009E
:1056E00004000007E00007FFC0041FF80007C00720
:1056F000F80007FF80043FF80007C004F800070027
:105700000004000000000004000806001807C0782C
:1057100005F1C8003E00001F800463E80780F8061A
:1057200000180400080000000400000600000780C4
:105730000007E008047C08001FF80007F8001808BC
:1057400004E008070000060000040000000000015B
:1057500000080600380400F80403E8040F08047C7D
:105760000805F00807C008070018040060000000E2
:105770000000000000000000000000000000003FEA
:10578000FFFE200002200002200002200002200074
:1057900002000000000000000000080000070000F8
:1057A00000C0000038000006000001C0000030000A
:1057B000000E0000010000000000000000002000BA
:1057C000022000022000022000022000023FFFFE13
:1057D00000000000000000000000000000000000C9
:1057E0000000000000080000100000300000200051
:1057F0000030000010000008000000000000000061
:105800000000010000010000010000010000010093
:105810000001000001000001000001000001000083
:105820000100000100000000000000000020000056
:105830002000001000001000000000000000000028
:1058400000000000000000000000000000F000194F
:10585000F8001B1800220800260800240800241065
:10586000003FF8001FF800000800001800000004C6
:10587000000007FFF80FFFF00018180010080020C4
:1058800008002008003018001FF0000FC0000000C2
:105890000000000007C0001FF000183000200800C2
:1058A0002008002008003C08001C100000600000D8
:1058B000000000000000000007C0001FF0003818C2
:1058C00000200800200800200804101007FFF80F2F
:1058D000FFF00000100000000000000000000007C2
:1058E000C0001FF000123000221800220800220819
:1058F000003208001E10000E200000000000000012
:10590000200000200800200801FFF803FFF806200F
:1059100008042008042008072000030000000000FD
:1059200000000000000E000E6E001FF30031B100F9
:1059300020B10020B1003191001F13002E1E002065
:105940000E00300000000004000807FFF80FFFF809
:10595000001008002000002000002008003FF80090
:105960001FF80000080000000000000000000020F8
:1059700008002008002008063FF8063FF80000084D
:105980000000080000080000000000000000000007
:10599000000000000300000300200100200100209F
:1059A00003063FFE063FFC00000000000000000070
:1059B00000000004000807FFF80FFFF8000188004E
:1059C0000300002FC00038F8002038002008000035
:1059D00008000000000000000000040008040008A7
:1059E00004000807FFF80FFFF80000080000080097
:1059F0000008000000000000002008003FF8003F01
:105A0000F8001008002000003FF8003FF8001008E0
:105A1000002000003FF8003FF800000800000000F0
:105A20002008003FF8003FF8001008001000002098
:105A300000002008003FF8001FF8000008000000E8
:105A40000000000007C0000FF00018300030080010
:105A50002008002008003008001830000FF0000770
:105A6000C0000000000000002001003FFF003FFFD9
:105A70000010110020090020080020080030380024
:105A80001FF0000FC00000000000000007C0001F52
:105A9000F00038180020080020080020090010112C
:105AA000001FFF003FFF0000010000000020080071
:105AB0002008002008003FF8003FF8000808001008
:105AC0000800200800200000300000300000000026
:105AD000000000000000000C78001E1800330800D1
